{
  "_format": "hh-sol-artifact-1",
  "contractName": "VoucherChain",
  "sourceName": "contracts/VoucherChain.sol",
  "abi": [
    {
      "inputs": [
        {
          "internalType": "address",
          "name": "_treasury",
          "type": "address"
        },
        {
          "internalType": "uint256",
          "name": "_mintingFee",
          "type": "uint256"
        },
        {
          "internalType": "uint256",
          "name": "_redemptionFee",
          "type": "uint256"
        },
        {
          "internalType": "uint256",
          "name": "_defaultExpiryDays",
          "type": "uint256"
        }
      ],
      "stateMutability": "nonpayable",
      "type": "constructor"
    },
    {
      "inputs": [],
      "name": "AgentNotActive",
      "type": "error"
    },
    {
      "inputs": [],
      "name": "DuplicateVoucherCode",
      "type": "error"
    },
    {
      "inputs": [],
      "name": "InsufficientBalance",
      "type": "error"
    },
    {
      "inputs": [],
      "name": "InvalidBatchSize",
      "type": "error"
    },
    {
      "inputs": [],
      "name": "InvalidExpiry",
      "type": "error"
    },
    {
      "inputs": [],
      "name": "InvalidFee",
      "type": "error"
    },
    {
      "inputs": [
        {
          "internalType": "address",
          "name": "owner",
          "type": "address"
        }
      ],
      "name": "OwnableInvalidOwner",
      "type": "error"
    },
    {
      "inputs": [
        {
          "internalType": "address",
          "name": "account",
          "type": "address"
        }
      ],
      "name": "OwnableUnauthorizedAccount",
      "type": "error"
    },
    {
      "inputs": [],
      "name": "ReentrancyGuardReentrantCall",
      "type": "error"
    },
    {
      "inputs": [],
      "name": "TokenNotSupported",
      "type": "error"
    },
    {
      "inputs": [],
      "name": "TokenTransferFailed",
      "type": "error"
    },
    {
      "inputs": [],
      "name": "UnauthorizedMinter",
      "type": "error"
    },
    {
      "inputs": [],
      "name": "VoucherAlreadyRedeemed",
      "type": "error"
    },
    {
      "inputs": [],
      "name": "VoucherExpired",
      "type": "error"
    },
    {
      "inputs": [],
      "name": "VoucherNotExpired",
      "type": "error"
    },
    {
      "inputs": [],
      "name": "VoucherNotFound",
      "type": "error"
    },
    {
      "anonymous": false,
      "inputs": [
        {
          "indexed": true,
          "internalType": "address",
          "name": "agent",
          "type": "address"
        },
        {
          "indexed": true,
          "internalType": "address",
          "name": "token",
          "type": "address"
        },
        {
          "indexed": false,
          "internalType": "uint256",
          "name": "amount",
          "type": "uint256"
        }
      ],
      "name": "AgentBalanceSettled",
      "type": "event"
    },
    {
      "anonymous": false,
      "inputs": [
        {
          "indexed": true,
          "internalType": "address",
          "name": "agent",
          "type": "address"
        }
      ],
      "name": "AgentDeactivated",
      "type": "event"
    },
    {
      "anonymous": false,
      "inputs": [
        {
          "indexed": true,
          "internalType": "address",
          "name": "agent",
          "type": "address"
        },
        {
          "indexed": false,
          "internalType": "uint256",
          "name": "commissionRate",
          "type": "uint256"
        }
      ],
      "name": "AgentRegistered",
      "type": "event"
    },
    {
      "anonymous": false,
      "inputs": [
        {
          "indexed": false,
          "internalType": "uint256",
          "name": "mintingFee",
          "type": "uint256"
        },
        {
          "indexed": false,
          "internalType": "uint256",
          "name": "redemptionFee",
          "type": "uint256"
        }
      ],
      "name": "FeesUpdated",
      "type": "event"
    },
    {
      "anonymous": false,
      "inputs": [
        {
          "indexed": true,
          "internalType": "address",
          "name": "previousOwner",
          "type": "address"
        },
        {
          "indexed": true,
          "internalType": "address",
          "name": "newOwner",
          "type": "address"
        }
      ],
      "name": "OwnershipTransferred",
      "type": "event"
    },
    {
      "anonymous": false,
      "inputs": [
        {
          "indexed": true,
          "internalType": "address",
          "name": "token",
          "type": "address"
        },
        {
          "indexed": false,
          "internalType": "bool",
          "name": "supported",
          "type": "bool"
        }
      ],
      "name": "TokenSupported",
      "type": "event"
    },
    {
      "anonymous": false,
      "inputs": [
        {
          "indexed": true,
          "internalType": "address",
          "name": "newTreasury",
          "type": "address"
        }
      ],
      "name": "TreasuryUpdated",
      "type": "event"
    },
    {
      "anonymous": false,
      "inputs": [
        {
          "indexed": true,
          "internalType": "address",
          "name": "issuer",
          "type": "address"
        },
        {
          "indexed": false,
          "internalType": "uint256",
          "name": "batchSize",
          "type": "uint256"
        },
        {
          "indexed": false,
          "internalType": "uint256",
          "name": "totalValue",
          "type": "uint256"
        }
      ],
      "name": "VoucherBatchMinted",
      "type": "event"
    },
    {
      "anonymous": false,
      "inputs": [
        {
          "indexed": true,
          "internalType": "bytes32",
          "name": "voucherHash",
          "type": "bytes32"
        },
        {
          "indexed": true,
          "internalType": "address",
          "name": "token",
          "type": "address"
        },
        {
          "indexed": false,
          "internalType": "uint256",
          "name": "tokenValue",
          "type": "uint256"
        },
        {
          "indexed": true,
          "internalType": "address",
          "name": "issuer",
          "type": "address"
        },
        {
          "indexed": false,
          "internalType": "uint256",
          "name": "expiryTimestamp",
          "type": "uint256"
        }
      ],
      "name": "VoucherMinted",
      "type": "event"
    },
    {
      "anonymous": false,
      "inputs": [
        {
          "indexed": true,
          "internalType": "bytes32",
          "name": "voucherHash",
          "type": "bytes32"
        },
        {
          "indexed": true,
          "internalType": "address",
          "name": "token",
          "type": "address"
        },
        {
          "indexed": true,
          "internalType": "address",
          "name": "agent",
          "type": "address"
        },
        {
          "indexed": false,
          "internalType": "uint256",
          "name": "tokenValue",
          "type": "uint256"
        }
      ],
      "name": "VoucherReclaimed",
      "type": "event"
    },
    {
      "anonymous": false,
      "inputs": [
        {
          "indexed": true,
          "internalType": "bytes32",
          "name": "voucherHash",
          "type": "bytes32"
        },
        {
          "indexed": true,
          "internalType": "address",
          "name": "token",
          "type": "address"
        },
        {
          "indexed": true,
          "internalType": "address",
          "name": "recipient",
          "type": "address"
        },
        {
          "indexed": false,
          "internalType": "uint256",
          "name": "tokenValue",
          "type": "uint256"
        },
        {
          "indexed": false,
          "internalType": "uint256",
          "name": "fee",
          "type": "uint256"
        }
      ],
      "name": "VoucherRedeemed",
      "type": "event"
    },
    {
      "inputs": [
        {
          "internalType": "address",
          "name": "minter",
          "type": "address"
        }
      ],
      "name": "addAuthorizedMinter",
      "outputs": [],
      "stateMutability": "nonpayable",
      "type": "function"
    },
    {
      "inputs": [
        {
          "internalType": "address",
          "name": "token",
          "type": "address"
        }
      ],
      "name": "addSupportedToken",
      "outputs": [],
      "stateMutability": "nonpayable",
      "type": "function"
    },
    {
      "inputs": [
        {
          "internalType": "address",
          "name": "",
          "type": "address"
        },
        {
          "internalType": "address",
          "name": "",
          "type": "address"
        }
      ],
      "name": "agentBalances",
      "outputs": [
        {
          "internalType": "uint256",
          "name": "",
          "type": "uint256"
        }
      ],
      "stateMutability": "view",
      "type": "function"
    },
    {
      "inputs": [
        {
          "internalType": "address",
          "name": "",
          "type": "address"
        }
      ],
      "name": "agents",
      "outputs": [
        {
          "internalType": "bool",
          "name": "isActive",
          "type": "bool"
        },
        {
          "internalType": "uint256",
          "name": "totalMinted",
          "type": "uint256"
        },
        {
          "internalType": "uint256",
          "name": "totalValue",
          "type": "uint256"
        },
        {
          "internalType": "uint256",
          "name": "commissionRate",
          "type": "uint256"
        },
        {
          "internalType": "uint256",
          "name": "lastSettlement",
          "type": "uint256"
        }
      ],
      "stateMutability": "view",
      "type": "function"
    },
    {
      "inputs": [
        {
          "internalType": "address",
          "name": "",
          "type": "address"
        }
      ],
      "name": "authorizedMinters",
      "outputs": [
        {
          "internalType": "bool",
          "name": "",
          "type": "bool"
        }
      ],
      "stateMutability": "view",
      "type": "function"
    },
    {
      "inputs": [
        {
          "internalType": "address",
          "name": "agent",
          "type": "address"
        }
      ],
      "name": "deactivateAgent",
      "outputs": [],
      "stateMutability": "nonpayable",
      "type": "function"
    },
    {
      "inputs": [],
      "name": "defaultExpiryDays",
      "outputs": [
        {
          "internalType": "uint256",
          "name": "",
          "type": "uint256"
        }
      ],
      "stateMutability": "view",
      "type": "function"
    },
    {
      "inputs": [
        {
          "internalType": "address",
          "name": "agent",
          "type": "address"
        }
      ],
      "name": "getAgentStats",
      "outputs": [
        {
          "internalType": "bool",
          "name": "isActive",
          "type": "bool"
        },
        {
          "internalType": "uint256",
          "name": "totalMinted",
          "type": "uint256"
        },
        {
          "internalType": "uint256",
          "name": "totalValue",
          "type": "uint256"
        },
        {
          "internalType": "uint256",
          "name": "commissionRate",
          "type": "uint256"
        },
        {
          "internalType": "uint256",
          "name": "lastSettlement",
          "type": "uint256"
        }
      ],
      "stateMutability": "view",
      "type": "function"
    },
    {
      "inputs": [
        {
          "internalType": "address",
          "name": "agent",
          "type": "address"
        },
        {
          "internalType": "address",
          "name": "token",
          "type": "address"
        }
      ],
      "name": "getAgentTokenBalance",
      "outputs": [
        {
          "internalType": "uint256",
          "name": "",
          "type": "uint256"
        }
      ],
      "stateMutability": "view",
      "type": "function"
    },
    {
      "inputs": [],
      "name": "getContractStats",
      "outputs": [
        {
          "internalType": "uint256",
          "name": "totalMinted",
          "type": "uint256"
        },
        {
          "internalType": "uint256",
          "name": "totalRedeemed",
          "type": "uint256"
        },
        {
          "internalType": "uint256",
          "name": "mintingFeeRate",
          "type": "uint256"
        },
        {
          "internalType": "uint256",
          "name": "redemptionFeeRate",
          "type": "uint256"
        }
      ],
      "stateMutability": "view",
      "type": "function"
    },
    {
      "inputs": [
        {
          "internalType": "address",
          "name": "token",
          "type": "address"
        }
      ],
      "name": "getContractTokenBalance",
      "outputs": [
        {
          "internalType": "uint256",
          "name": "",
          "type": "uint256"
        }
      ],
      "stateMutability": "view",
      "type": "function"
    },
    {
      "inputs": [
        {
          "internalType": "address",
          "name": "token",
          "type": "address"
        }
      ],
      "name": "getTokenStats",
      "outputs": [
        {
          "internalType": "uint256",
          "name": "totalRedeemed",
          "type": "uint256"
        }
      ],
      "stateMutability": "view",
      "type": "function"
    },
    {
      "inputs": [
        {
          "internalType": "string",
          "name": "voucherCode",
          "type": "string"
        }
      ],
      "name": "getVoucherStatus",
      "outputs": [
        {
          "internalType": "bool",
          "name": "exists",
          "type": "bool"
        },
        {
          "internalType": "bool",
          "name": "isRedeemed",
          "type": "bool"
        },
        {
          "internalType": "address",
          "name": "token",
          "type": "address"
        },
        {
          "internalType": "uint256",
          "name": "tokenValue",
          "type": "uint256"
        },
        {
          "internalType": "address",
          "name": "issuer",
          "type": "address"
        },
        {
          "internalType": "uint256",
          "name": "expiryTimestamp",
          "type": "uint256"
        }
      ],
      "stateMutability": "view",
      "type": "function"
    },
    {
      "inputs": [
        {
          "internalType": "address",
          "name": "token",
          "type": "address"
        }
      ],
      "name": "isTokenSupported",
      "outputs": [
        {
          "internalType": "bool",
          "name": "",
          "type": "bool"
        }
      ],
      "stateMutability": "view",
      "type": "function"
    },
    {
      "inputs": [
        {
          "internalType": "bytes32",
          "name": "voucherHash",
          "type": "bytes32"
        },
        {
          "internalType": "address",
          "name": "token",
          "type": "address"
        },
        {
          "internalType": "uint256",
          "name": "tokenValue",
          "type": "uint256"
        },
        {
          "internalType": "uint256",
          "name": "expiryDays",
          "type": "uint256"
        }
      ],
      "name": "mintVoucher",
      "outputs": [],
      "stateMutability": "nonpayable",
      "type": "function"
    },
    {
      "inputs": [
        {
          "components": [
            {
              "internalType": "bytes32[]",
              "name": "voucherHashes",
              "type": "bytes32[]"
            },
            {
              "internalType": "address[]",
              "name": "tokens",
              "type": "address[]"
            },
            {
              "internalType": "uint256[]",
              "name": "tokenValues",
              "type": "uint256[]"
            },
            {
              "internalType": "uint256[]",
              "name": "expiryDays",
              "type": "uint256[]"
            }
          ],
          "internalType": "struct VoucherChain.VoucherBatch",
          "name": "batch",
          "type": "tuple"
        }
      ],
      "name": "mintVoucherBatch",
      "outputs": [],
      "stateMutability": "nonpayable",
      "type": "function"
    },
    {
      "inputs": [],
      "name": "mintingFee",
      "outputs": [
        {
          "internalType": "uint256",
          "name": "",
          "type": "uint256"
        }
      ],
      "stateMutability": "view",
      "type": "function"
    },
    {
      "inputs": [],
      "name": "owner",
      "outputs": [
        {
          "internalType": "address",
          "name": "",
          "type": "address"
        }
      ],
      "stateMutability": "view",
      "type": "function"
    },
    {
      "inputs": [
        {
          "internalType": "string",
          "name": "voucherCode",
          "type": "string"
        }
      ],
      "name": "reclaimExpiredVoucher",
      "outputs": [],
      "stateMutability": "nonpayable",
      "type": "function"
    },
    {
      "inputs": [
        {
          "internalType": "string",
          "name": "voucherCode",
          "type": "string"
        },
        {
          "internalType": "address",
          "name": "recipient",
          "type": "address"
        }
      ],
      "name": "redeemVoucher",
      "outputs": [],
      "stateMutability": "nonpayable",
      "type": "function"
    },
    {
      "inputs": [],
      "name": "redemptionFee",
      "outputs": [
        {
          "internalType": "uint256",
          "name": "",
          "type": "uint256"
        }
      ],
      "stateMutability": "view",
      "type": "function"
    },
    {
      "inputs": [
        {
          "internalType": "address",
          "name": "agent",
          "type": "address"
        },
        {
          "internalType": "uint256",
          "name": "commissionRate",
          "type": "uint256"
        }
      ],
      "name": "registerAgent",
      "outputs": [],
      "stateMutability": "nonpayable",
      "type": "function"
    },
    {
      "inputs": [
        {
          "internalType": "address",
          "name": "minter",
          "type": "address"
        }
      ],
      "name": "removeAuthorizedMinter",
      "outputs": [],
      "stateMutability": "nonpayable",
      "type": "function"
    },
    {
      "inputs": [
        {
          "internalType": "address",
          "name": "token",
          "type": "address"
        }
      ],
      "name": "removeSupportedToken",
      "outputs": [],
      "stateMutability": "nonpayable",
      "type": "function"
    },
    {
      "inputs": [],
      "name": "renounceOwnership",
      "outputs": [],
      "stateMutability": "nonpayable",
      "type": "function"
    },
    {
      "inputs": [
        {
          "internalType": "address",
          "name": "agent",
          "type": "address"
        },
        {
          "internalType": "address",
          "name": "token",
          "type": "address"
        }
      ],
      "name": "settleAgentBalance",
      "outputs": [],
      "stateMutability": "nonpayable",
      "type": "function"
    },
    {
      "inputs": [
        {
          "internalType": "address",
          "name": "",
          "type": "address"
        }
      ],
      "name": "supportedTokens",
      "outputs": [
        {
          "internalType": "bool",
          "name": "",
          "type": "bool"
        }
      ],
      "stateMutability": "view",
      "type": "function"
    },
    {
      "inputs": [
        {
          "internalType": "address",
          "name": "",
          "type": "address"
        }
      ],
      "name": "totalTokensRedeemed",
      "outputs": [
        {
          "internalType": "uint256",
          "name": "",
          "type": "uint256"
        }
      ],
      "stateMutability": "view",
      "type": "function"
    },
    {
      "inputs": [],
      "name": "totalVouchersMinted",
      "outputs": [
        {
          "internalType": "uint256",
          "name": "",
          "type": "uint256"
        }
      ],
      "stateMutability": "view",
      "type": "function"
    },
    {
      "inputs": [],
      "name": "totalVouchersRedeemed",
      "outputs": [
        {
          "internalType": "uint256",
          "name": "",
          "type": "uint256"
        }
      ],
      "stateMutability": "view",
      "type": "function"
    },
    {
      "inputs": [
        {
          "internalType": "address",
          "name": "newOwner",
          "type": "address"
        }
      ],
      "name": "transferOwnership",
      "outputs": [],
      "stateMutability": "nonpayable",
      "type": "function"
    },
    {
      "inputs": [],
      "name": "treasury",
      "outputs": [
        {
          "internalType": "address",
          "name": "",
          "type": "address"
        }
      ],
      "stateMutability": "view",
      "type": "function"
    },
    {
      "inputs": [
        {
          "internalType": "uint256",
          "name": "_defaultExpiryDays",
          "type": "uint256"
        }
      ],
      "name": "updateDefaultExpiryDays",
      "outputs": [],
      "stateMutability": "nonpayable",
      "type": "function"
    },
    {
      "inputs": [
        {
          "internalType": "uint256",
          "name": "_mintingFee",
          "type": "uint256"
        },
        {
          "internalType": "uint256",
          "name": "_redemptionFee",
          "type": "uint256"
        }
      ],
      "name": "updateFees",
      "outputs": [],
      "stateMutability": "nonpayable",
      "type": "function"
    },
    {
      "inputs": [
        {
          "internalType": "address",
          "name": "_treasury",
          "type": "address"
        }
      ],
      "name": "updateTreasury",
      "outputs": [],
      "stateMutability": "nonpayable",
      "type": "function"
    },
    {
      "inputs": [
        {
          "internalType": "bytes32",
          "name": "",
          "type": "bytes32"
        }
      ],
      "name": "vouchers",
      "outputs": [
        {
          "internalType": "bytes32",
          "name": "voucherHash",
          "type": "bytes32"
        },
        {
          "internalType": "address",
          "name": "token",
          "type": "address"
        },
        {
          "internalType": "uint256",
          "name": "tokenValue",
          "type": "uint256"
        },
        {
          "internalType": "bool",
          "name": "isRedeemed",
          "type": "bool"
        },
        {
          "internalType": "address",
          "name": "issuer",
          "type": "address"
        },
        {
          "internalType": "uint256",
          "name": "mintTimestamp",
          "type": "uint256"
        },
        {
          "internalType": "uint256",
          "name": "expiryTimestamp",
          "type": "uint256"
        },
        {
          "internalType": "bool",
          "name": "exists",
          "type": "bool"
        }
      ],
      "stateMutability": "view",
      "type": "function"
    }
  ],
  "bytecode": "0x608060405234801561001057600080fd5b5060405161283638038061283683398101604081905261002f9161013c565b338061005657604051631e4fbdf760e01b8152600060048201526024015b60405180910390fd5b61005f816100ec565b50600180556001600160a01b0384166100ba5760405162461bcd60e51b815260206004820152601860248201527f496e76616c696420747265617375727920616464726573730000000000000000604482015260640161004d565b600d80546001600160a01b0319166001600160a01b039590951694909417909355600a91909155600b55600c55610187565b600080546001600160a01b038381166001600160a01b0319831681178455604051919092169283917f8be0079c531659141344cd1fd0a4f28419497f9722a3daafe3b4186f6b6457e09190a35050565b6000806000806080858703121561015257600080fd5b84516001600160a01b038116811461016957600080fd5b60208601516040870151606090970151919890975090945092505050565b6126a0806101966000396000f3fe608060405234801561001057600080fd5b506004361061021c5760003560e01c80637f51bb1f11610125578063b5695b38116100ad578063e089cc861161007c578063e089cc86146105c1578063e4c96ac4146105fa578063e50f3c87146106aa578063f2fde38b146106bd578063fd66091e146106d057600080fd5b8063b5695b38146104a4578063b9ac996614610541578063ca88d5c51461056c578063dfe6b5d61461059557600080fd5b8063a1a33d3f116100f4578063a1a33d3f14610432578063aa2fe91b14610445578063acba9c8914610468578063b0908c4214610488578063b0a0a9271461049157600080fd5b80637f51bb1f146103f2578063885fd6a6146104055780638da5cb5b1461040e5780639c06dd791461041f57600080fd5b80635f710f5c116101a85780636db79437116101775780636db7943714610385578063715018a61461039857806374952eed146103a057806375151b63146103b357806376319190146103df57600080fd5b80635f710f5c1461030157806361d027b31461031457806368c4ac261461033f5780636d69fcaf1461037257600080fd5b80633543ad58116101ef5780633543ad58146102b6578063458f5815146102c9578063475ae039146102d25780635a64ad95146102e55780635c7e2984146102ee57600080fd5b80630cb532a314610221578063123a0b491461027757806314205e281461028e57806322f0af8f146102a1575b600080fd5b61023461022f3660046121de565b610712565b60408051961515875294151560208701526001600160a01b0393841694860194909452606085019190915216608083015260a082015260c0015b60405180910390f35b61028060075481565b60405190815260200161026e565b61028061029c366004612237565b6107e0565b6102b46102af36600461234f565b610851565b005b6102b46102c4366004612444565b610fe2565b610280600b5481565b6102b46102e0366004612237565b611139565b610280600a5481565b6102b46102fc36600461246e565b611162565b6102b461030f366004612237565b61132c565b600d54610327906001600160a01b031681565b6040516001600160a01b03909116815260200161026e565b61036261034d366004612237565b60056020526000908152604090205460ff1681565b604051901515815260200161026e565b6102b4610380366004612237565b611358565b6102b46103933660046124a1565b61140c565b6102b46114f6565b6102b46103ae3660046124c3565b61150a565b6103626103c1366004612237565b6001600160a01b031660009081526005602052604090205460ff1690565b6102b46103ed366004612237565b61155b565b6102b4610400366004612237565b6115b2565b61028060085481565b6000546001600160a01b0316610327565b6102b461042d3660046124dc565b61165a565b6102b46104403660046121de565b611ad4565b610362610453366004612237565b60046020526000908152604090205460ff1681565b610280610476366004612237565b60096020526000908152604090205481565b610280600c5481565b6102b461049f366004612237565b611cbf565b6105176104b2366004612237565b6001600160a01b0316600090815260036020818152604092839020835160a081018552815460ff161515808252600183015493820184905260028301549582018690529382015460608201819052600490920154608090910181905292949193929091565b6040805195151586526020860194909452928401919091526060830152608082015260a00161026e565b61028061054f36600461246e565b600660209081526000928352604080842090915290825290205481565b61028061057a366004612237565b6001600160a01b031660009081526009602052604090205490565b600754600854600a54600b5460408051948552602085019390935291830152606082015260800161026e565b6102806105cf36600461246e565b6001600160a01b03918216600090815260066020908152604080832093909416825291909152205490565b61065e6106083660046124c3565b6002602081905260009182526040909120805460018201549282015460038301546004840154600585015460069095015493956001600160a01b0390811695939460ff8085169561010090950490921693911688565b604080519889526001600160a01b0397881660208a015288019590955292151560608701529316608085015260a084019290925260c0830191909152151560e08201526101000161026e565b6102b46106b8366004612517565b611d6b565b6102b46106cb366004612237565b61201c565b6105176106de366004612237565b60036020819052600091825260409091208054600182015460028301549383015460049093015460ff909216939092909185565b60008060008060008060008760405160200161072e919061255c565b60408051808303601f190181528282528051602091820120600090815260028083529083902061010080860185528154865260018201546001600160a01b0390811694870185905292820154948601859052600382015460ff8082161515606089018190529290910490931660808701819052600483015460a0880152600583015460c08801819052600690930154909316151560e0909601869052949d949c50919a50919850909650945092505050565b6040516370a0823160e01b81523060048201526000906001600160a01b038316906370a0823190602401602060405180830381865afa158015610827573d6000803e3d6000fd5b505050506040513d601f19601f8201168201806040525081019061084b919061258b565b92915050565b3360009081526004602052604090205460ff1615801561088157503360009081526003602052604090205460ff16155b1561089f5760405163955c501b60e01b815260040160405180910390fd5b6108a7612057565b8051516000036108ca57604051637862e95960e01b815260040160405180910390fd5b6020810151518151511415806108e7575060408101515181515114155b806108f9575060608101515181515114155b1561091757604051637862e95960e01b815260040160405180910390fd5b60005b815151811015610a645760008260200151828151811061093c5761093c6125a4565b6020908102919091018101516001600160a01b0381166000908152600590925260409091205490915060ff1661098557604051633dd1b30560e01b815260040160405180910390fd5b8260400151828151811061099b5761099b6125a4565b60200260200101516000036109c3576040516358d620b360e01b815260040160405180910390fd5b61016d836060015183815181106109dc576109dc6125a4565b60200260200101511115610a025760405162d36c8560e81b815260040160405180910390fd5b6002600084600001518481518110610a1c57610a1c6125a4565b60209081029190910181015182528101919091526040016000206006015460ff1615610a5b5760405163760a1fcb60e01b815260040160405180910390fd5b5060010161091a565b5060005b815151811015610c0057600082602001518281518110610a8a57610a8a6125a4565b602002602001015190506000612710600a5485604001518581518110610ab257610ab26125a4565b6020026020010151610ac491906125d0565b610ace91906125e7565b905060008185604001518581518110610ae957610ae96125a4565b6020026020010151610afb9190612609565b6040516323b872dd60e01b8152336004820152306024820152604481018290529091506001600160a01b038416906323b872dd906064016020604051808303816000875af1158015610b51573d6000803e3d6000fd5b505050506040513d601f19601f82011682018060405250810190610b75919061261c565b508115610bf557600d5460405163a9059cbb60e01b81526001600160a01b039182166004820152602481018490529084169063a9059cbb906044016020604051808303816000875af1158015610bcf573d6000803e3d6000fd5b505050506040513d601f19601f82011682018060405250810190610bf3919061261c565b505b505050600101610a68565b5060005b815151811015610ee65760008083606001518381518110610c2757610c276125a4565b60200260200101511115610c725782606001518281518110610c4b57610c4b6125a4565b602002602001015162015180610c6191906125d0565b610c6b9042612609565b9050610c97565b600c5415610c9757600c54610c8a90620151806125d0565b610c949042612609565b90505b600060405180610100016040528085600001518581518110610cbb57610cbb6125a4565b6020026020010151815260200185602001518581518110610cde57610cde6125a4565b60200260200101516001600160a01b0316815260200185604001518581518110610d0a57610d0a6125a4565b60200260200101518152602001600015158152602001336001600160a01b03168152602001428152602001838152602001600115158152509050806002600086600001518681518110610d5f57610d5f6125a4565b6020908102919091018101518252818101929092526040908101600090812084518155928401516001840180546001600160a01b0319166001600160a01b03928316179055918401516002840155606084015160038401805460808701516001600160a81b0319909116921515610100600160a81b0319169290921761010092909416919091029290921790915560a0830151600483015560c0830151600583015560e0909201516006909101805460ff19169115159190911790556007805491610e298361263e565b9190505550336001600160a01b031684602001518481518110610e4e57610e4e6125a4565b60200260200101516001600160a01b031685600001518581518110610e7557610e756125a4565b60200260200101517f8bc35461a6531fa267e9f1ddd1af55fdbe2eead5bcf09f3679cb0aa362d607e587604001518781518110610eb457610eb46125a4565b602002602001015186604051610ed4929190918252602082015260400190565b60405180910390a45050600101610c04565b503360009081526003602052604090205460ff1615610f98578051513360009081526003602052604081206001018054909190610f24908490612609565b9091555060009050805b826040015151811015610f6e5782604001518181518110610f5157610f516125a4565b602002602001015182610f649190612609565b9150600101610f2e565b503360009081526003602052604081206002018054839290610f91908490612609565b9091555050505b805151604080519182526000602083015233917f72322b02ea71c107f980c1c051fa2235130165daa15b77d912730542243cff76910160405180910390a2610fdf60018055565b50565b610fea612081565b6001600160a01b03821661103d5760405162461bcd60e51b8152602060048201526015602482015274496e76616c6964206167656e74206164647265737360581b60448201526064015b60405180910390fd5b6103e881111561108f5760405162461bcd60e51b815260206004820152601860248201527f436f6d6d697373696f6e207261746520746f6f206869676800000000000000006044820152606401611034565b6040805160a08101825260018082526000602080840182815284860183815260608601888152608087018581526001600160a01b038b168087526003808752968a90209851895460ff19169015151789559351968801969096559051600287015551928501929092559151600490930192909255915183815290917fd1b844701695237443dd884ed7193d9c8788f3befd35adc0910472eb166f3306910160405180910390a25050565b611141612081565b6001600160a01b03166000908152600460205260409020805460ff19169055565b61116a612057565b6001600160a01b0382166000908152600360205260409020805460ff166111c65760405162461bcd60e51b815260206004820152601060248201526f4167656e74206e6f742061637469766560801b6044820152606401611034565b6001600160a01b0380841660009081526006602090815260408083209386168352929052205461122f5760405162461bcd60e51b81526020600482015260146024820152734e6f2062616c616e636520746f20736574746c6560601b6044820152606401611034565b6001600160a01b03838116600081815260066020908152604080832094871680845294909152808220805492905542600486810191909155905163a9059cbb60e01b81529081019290925260248201819052919063a9059cbb906044016020604051808303816000875af11580156112ab573d6000803e3d6000fd5b505050506040513d601f19601f820116820180604052508101906112cf919061261c565b50826001600160a01b0316846001600160a01b03167f4868f5f8250e20e14b10078067a35863c490eeba7f0c484275865fdea144e5988360405161131591815260200190565b60405180910390a3505061132860018055565b5050565b611334612081565b6001600160a01b03166000908152600460205260409020805460ff19166001179055565b611360612081565b6001600160a01b0381166113ae5760405162461bcd60e51b8152602060048201526015602482015274496e76616c696420746f6b656e206164647265737360581b6044820152606401611034565b6001600160a01b038116600081815260056020908152604091829020805460ff1916600190811790915591519182527fd86c88b4a367d9b81a6e00c9d3f7d01657bffef358fa8968c91c045ae99f0d5291015b60405180910390a250565b611414612081565b6101f482111561145d5760405162461bcd60e51b815260206004820152601460248201527309ad2dce8d2dcce40cccaca40e8dede40d0d2ced60631b6044820152606401611034565b6101f48111156114af5760405162461bcd60e51b815260206004820152601760248201527f526564656d7074696f6e2066656520746f6f20686967680000000000000000006044820152606401611034565b600a829055600b81905560408051838152602081018390527f5c6323bf1c2d7aaea2c091a4751c1c87af7f2864650c336507a77d0557af37a1910160405180910390a15050565b6114fe612081565b61150860006120ae565b565b611512612081565b61016d8111156115565760405162461bcd60e51b815260206004820152600f60248201526e45787069727920746f6f206c6f6e6760881b6044820152606401611034565b600c55565b611563612081565b6001600160a01b0381166000818152600560209081526040808320805460ff19169055519182527fd86c88b4a367d9b81a6e00c9d3f7d01657bffef358fa8968c91c045ae99f0d529101611401565b6115ba612081565b6001600160a01b0381166116105760405162461bcd60e51b815260206004820152601860248201527f496e76616c6964207472656173757279206164647265737300000000000000006044820152606401611034565b600d80546001600160a01b0319166001600160a01b0383169081179091556040517f7dae230f18360d76a040c81f050aa14eb9d6dc7901b20fc5d855e2a20fe814d190600090a250565b3360009081526004602052604090205460ff1615801561168a57503360009081526003602052604090205460ff16155b156116a85760405163955c501b60e01b815260040160405180910390fd5b6116b0612057565b6001600160a01b03831660009081526005602052604090205460ff166116e957604051633dd1b30560e01b815260040160405180910390fd5b8160000361170a576040516358d620b360e01b815260040160405180910390fd5b61016d81111561172c5760405162d36c8560e81b815260040160405180910390fd5b60008481526002602052604090206006015460ff161561175f5760405163760a1fcb60e01b815260040160405180910390fd5b600081156117855761177482620151806125d0565b61177e9042612609565b90506117aa565b600c54156117aa57600c5461179d90620151806125d0565b6117a79042612609565b90505b6000612710600a54856117bd91906125d0565b6117c791906125e7565b905060006117d58286612609565b6040516323b872dd60e01b8152336004820152306024820152604481018290529091506001600160a01b038716906323b872dd906064016020604051808303816000875af115801561182b573d6000803e3d6000fd5b505050506040513d601f19601f8201168201806040525081019061184f919061261c565b5081156118cf57600d5460405163a9059cbb60e01b81526001600160a01b039182166004820152602481018490529087169063a9059cbb906044016020604051808303816000875af11580156118a9573d6000803e3d6000fd5b505050506040513d601f19601f820116820180604052508101906118cd919061261c565b505b6000604051806101000160405280898152602001886001600160a01b03168152602001878152602001600015158152602001336001600160a01b0316815260200142815260200185815260200160011515815250905080600260008a81526020019081526020016000206000820151816000015560208201518160010160006101000a8154816001600160a01b0302191690836001600160a01b031602179055506040820151816002015560608201518160030160006101000a81548160ff02191690831515021790555060808201518160030160016101000a8154816001600160a01b0302191690836001600160a01b0316021790555060a0820151816004015560c0820151816005015560e08201518160060160006101000a81548160ff02191690831515021790555090505060076000815480929190611a119061263e565b90915550503360009081526003602052604090205460ff1615611a7957336000908152600360205260408120600101805491611a4c8361263e565b90915550503360009081526003602052604081206002018054889290611a73908490612609565b90915550505b604080518781526020810186905233916001600160a01b038a16918b917f8bc35461a6531fa267e9f1ddd1af55fdbe2eead5bcf09f3679cb0aa362d607e5910160405180910390a450505050611ace60018055565b50505050565b611adc612057565b600081604051602001611aef919061255c565b60408051601f19818403018152918152815160209283012060008181526002909352912060068101549192509060ff16611b3c576040516372dea21d60e11b815260040160405180910390fd5b600381015460ff1615611b6257604051633c2c4dd160e01b815260040160405180910390fd5b600381015461010090046001600160a01b03163314611b945760405163955c501b60e01b815260040160405180910390fd5b60058101541580611ba9575080600501544211155b15611bc75760405163412f54af60e01b815260040160405180910390fd5b60038101805460ff1916600117905560088054906000611be68361263e565b90915550506001810154600282015460405163a9059cbb60e01b815233600482015260248101919091526001600160a01b039091169063a9059cbb906044016020604051808303816000875af1158015611c44573d6000803e3d6000fd5b505050506040513d601f19601f82011682018060405250810190611c68919061261c565b506001810154600282015460405190815233916001600160a01b03169084907f95e45a1f3148786336a99458b77caaea9737e9c07177c16278f10a735b935e099060200160405180910390a45050610fdf60018055565b611cc7612081565b6001600160a01b03811660009081526003602052604090205460ff16611d225760405162461bcd60e51b815260206004820152601060248201526f4167656e74206e6f742061637469766560801b6044820152606401611034565b6001600160a01b038116600081815260036020526040808220805460ff19169055517fa58c733780f5c1527d6106ff1e731cbf2e9ffc0eb11ad399ca33ea55f057ddf49190a250565b611d73612057565b600082604051602001611d86919061255c565b60408051601f19818403018152918152815160209283012060008181526002909352912060068101549192509060ff16611dd3576040516372dea21d60e11b815260040160405180910390fd5b600381015460ff1615611df957604051633c2c4dd160e01b815260040160405180910390fd5b60008160050154118015611e105750806005015442115b15611e2e57604051630abfec3f60e11b815260040160405180910390fd5b60038101805460ff1916600117905560088054906000611e4d8361263e565b91905055506000612710600b548360020154611e6991906125d0565b611e7391906125e7565b90506000818360020154611e879190612657565b600284015460018501546001600160a01b0316600090815260096020526040812080549394509192611eba908490612609565b9091555050600183015460405163a9059cbb60e01b81526001600160a01b038781166004830152602482018490529091169063a9059cbb906044016020604051808303816000875af1158015611f14573d6000803e3d6000fd5b505050506040513d601f19601f82011682018060405250810190611f38919061261c565b508115611fbc576001830154600d5460405163a9059cbb60e01b81526001600160a01b0391821660048201526024810185905291169063a9059cbb906044016020604051808303816000875af1158015611f96573d6000803e3d6000fd5b505050506040513d601f19601f82011682018060405250810190611fba919061261c565b505b6001830154600284015460408051918252602082018590526001600160a01b0388811693169187917f7b9c60b600149390eb5269ef5b6a9f4deb8a5a0ca9b6c10148344994241e8dc7910160405180910390a45050505061132860018055565b612024612081565b6001600160a01b03811661204e57604051631e4fbdf760e01b815260006004820152602401611034565b610fdf816120ae565b60026001540361207a57604051633ee5aeb560e01b815260040160405180910390fd5b6002600155565b6000546001600160a01b031633146115085760405163118cdaa760e01b8152336004820152602401611034565b600080546001600160a01b038381166001600160a01b0319831681178455604051919092169283917f8be0079c531659141344cd1fd0a4f28419497f9722a3daafe3b4186f6b6457e09190a35050565b634e487b7160e01b600052604160045260246000fd5b6040516080810167ffffffffffffffff81118282101715612137576121376120fe565b60405290565b604051601f8201601f1916810167ffffffffffffffff81118282101715612166576121666120fe565b604052919050565b600082601f83011261217f57600080fd5b813567ffffffffffffffff811115612199576121996120fe565b6121ac601f8201601f191660200161213d565b8181528460208386010111156121c157600080fd5b816020850160208301376000918101602001919091529392505050565b6000602082840312156121f057600080fd5b813567ffffffffffffffff81111561220757600080fd5b6122138482850161216e565b949350505050565b80356001600160a01b038116811461223257600080fd5b919050565b60006020828403121561224957600080fd5b6122528261221b565b9392505050565b600067ffffffffffffffff821115612273576122736120fe565b5060051b60200190565b600082601f83011261228e57600080fd5b81356122a161229c82612259565b61213d565b8082825260208201915060208360051b8601019250858311156122c357600080fd5b602085015b838110156122e05780358352602092830192016122c8565b5095945050505050565b600082601f8301126122fb57600080fd5b813561230961229c82612259565b8082825260208201915060208360051b86010192508583111561232b57600080fd5b602085015b838110156122e0576123418161221b565b835260209283019201612330565b60006020828403121561236157600080fd5b813567ffffffffffffffff81111561237857600080fd5b82016080818503121561238a57600080fd5b612392612114565b813567ffffffffffffffff8111156123a957600080fd5b6123b58682850161227d565b825250602082013567ffffffffffffffff8111156123d257600080fd5b6123de868285016122ea565b602083015250604082013567ffffffffffffffff8111156123fe57600080fd5b61240a8682850161227d565b604083015250606082013567ffffffffffffffff81111561242a57600080fd5b6124368682850161227d565b606083015250949350505050565b6000806040838503121561245757600080fd5b6124608361221b565b946020939093013593505050565b6000806040838503121561248157600080fd5b61248a8361221b565b91506124986020840161221b565b90509250929050565b600080604083850312156124b457600080fd5b50508035926020909101359150565b6000602082840312156124d557600080fd5b5035919050565b600080600080608085870312156124f257600080fd5b843593506125026020860161221b565b93969395505050506040820135916060013590565b6000806040838503121561252a57600080fd5b823567ffffffffffffffff81111561254157600080fd5b61254d8582860161216e565b9250506124986020840161221b565b6000825160005b8181101561257d5760208186018101518583015201612563565b506000920191825250919050565b60006020828403121561259d57600080fd5b5051919050565b634e487b7160e01b600052603260045260246000fd5b634e487b7160e01b600052601160045260246000fd5b808202811582820484141761084b5761084b6125ba565b60008261260457634e487b7160e01b600052601260045260246000fd5b500490565b8082018082111561084b5761084b6125ba565b60006020828403121561262e57600080fd5b8151801515811461225257600080fd5b600060018201612650576126506125ba565b5060010190565b8181038181111561084b5761084b6125ba56fea2646970667358221220cb6c98837193da046f94c8baf4cdc0fa7081dfe9467d24aaf628cec9a612f2ac64736f6c634300081c0033",
  "linkReferences": {},
  "deployedLinkReferences": {}
}